{
  "contractName": "myToken",
  "abi": [
    {
      "inputs": [
        {
          "internalType": "uint256",
          "name": "initialSupply",
          "type": "uint256"
        }
      ],
      "stateMutability": "nonpayable",
      "type": "constructor"
    },
    {
      "anonymous": false,
      "inputs": [
        {
          "indexed": true,
          "internalType": "address",
          "name": "owner",
          "type": "address"
        },
        {
          "indexed": true,
          "internalType": "address",
          "name": "spender",
          "type": "address"
        },
        {
          "indexed": false,
          "internalType": "uint256",
          "name": "value",
          "type": "uint256"
        }
      ],
      "name": "Approval",
      "type": "event"
    },
    {
      "anonymous": false,
      "inputs": [
        {
          "indexed": true,
          "internalType": "address",
          "name": "from",
          "type": "address"
        },
        {
          "indexed": true,
          "internalType": "address",
          "name": "to",
          "type": "address"
        },
        {
          "indexed": false,
          "internalType": "uint256",
          "name": "value",
          "type": "uint256"
        }
      ],
      "name": "Transfer",
      "type": "event"
    },
    {
      "inputs": [
        {
          "internalType": "address",
          "name": "owner",
          "type": "address"
        },
        {
          "internalType": "address",
          "name": "spender",
          "type": "address"
        }
      ],
      "name": "allowance",
      "outputs": [
        {
          "internalType": "uint256",
          "name": "",
          "type": "uint256"
        }
      ],
      "stateMutability": "view",
      "type": "function",
      "constant": true
    },
    {
      "inputs": [
        {
          "internalType": "address",
          "name": "spender",
          "type": "address"
        },
        {
          "internalType": "uint256",
          "name": "amount",
          "type": "uint256"
        }
      ],
      "name": "approve",
      "outputs": [
        {
          "internalType": "bool",
          "name": "",
          "type": "bool"
        }
      ],
      "stateMutability": "nonpayable",
      "type": "function"
    },
    {
      "inputs": [
        {
          "internalType": "address",
          "name": "account",
          "type": "address"
        }
      ],
      "name": "balanceOf",
      "outputs": [
        {
          "internalType": "uint256",
          "name": "",
          "type": "uint256"
        }
      ],
      "stateMutability": "view",
      "type": "function",
      "constant": true
    },
    {
      "inputs": [
        {
          "internalType": "uint256",
          "name": "amount",
          "type": "uint256"
        }
      ],
      "name": "burn",
      "outputs": [],
      "stateMutability": "nonpayable",
      "type": "function"
    },
    {
      "inputs": [
        {
          "internalType": "address",
          "name": "account",
          "type": "address"
        },
        {
          "internalType": "uint256",
          "name": "amount",
          "type": "uint256"
        }
      ],
      "name": "burnFrom",
      "outputs": [],
      "stateMutability": "nonpayable",
      "type": "function"
    },
    {
      "inputs": [],
      "name": "decimals",
      "outputs": [
        {
          "internalType": "uint8",
          "name": "",
          "type": "uint8"
        }
      ],
      "stateMutability": "view",
      "type": "function",
      "constant": true
    },
    {
      "inputs": [
        {
          "internalType": "address",
          "name": "spender",
          "type": "address"
        },
        {
          "internalType": "uint256",
          "name": "subtractedValue",
          "type": "uint256"
        }
      ],
      "name": "decreaseAllowance",
      "outputs": [
        {
          "internalType": "bool",
          "name": "",
          "type": "bool"
        }
      ],
      "stateMutability": "nonpayable",
      "type": "function"
    },
    {
      "inputs": [
        {
          "internalType": "address",
          "name": "spender",
          "type": "address"
        },
        {
          "internalType": "uint256",
          "name": "addedValue",
          "type": "uint256"
        }
      ],
      "name": "increaseAllowance",
      "outputs": [
        {
          "internalType": "bool",
          "name": "",
          "type": "bool"
        }
      ],
      "stateMutability": "nonpayable",
      "type": "function"
    },
    {
      "inputs": [],
      "name": "name",
      "outputs": [
        {
          "internalType": "string",
          "name": "",
          "type": "string"
        }
      ],
      "stateMutability": "view",
      "type": "function",
      "constant": true
    },
    {
      "inputs": [],
      "name": "symbol",
      "outputs": [
        {
          "internalType": "string",
          "name": "",
          "type": "string"
        }
      ],
      "stateMutability": "view",
      "type": "function",
      "constant": true
    },
    {
      "inputs": [],
      "name": "totalSupply",
      "outputs": [
        {
          "internalType": "uint256",
          "name": "",
          "type": "uint256"
        }
      ],
      "stateMutability": "view",
      "type": "function",
      "constant": true
    },
    {
      "inputs": [
        {
          "internalType": "address",
          "name": "recipient",
          "type": "address"
        },
        {
          "internalType": "uint256",
          "name": "amount",
          "type": "uint256"
        }
      ],
      "name": "transfer",
      "outputs": [
        {
          "internalType": "bool",
          "name": "",
          "type": "bool"
        }
      ],
      "stateMutability": "nonpayable",
      "type": "function"
    },
    {
      "inputs": [
        {
          "internalType": "address",
          "name": "sender",
          "type": "address"
        },
        {
          "internalType": "address",
          "name": "recipient",
          "type": "address"
        },
        {
          "internalType": "uint256",
          "name": "amount",
          "type": "uint256"
        }
      ],
      "name": "transferFrom",
      "outputs": [
        {
          "internalType": "bool",
          "name": "",
          "type": "bool"
        }
      ],
      "stateMutability": "nonpayable",
      "type": "function"
    },
    {
      "inputs": [
        {
          "internalType": "uint256",
          "name": "amount",
          "type": "uint256"
        }
      ],
      "name": "_calculateBurnAmount",
      "outputs": [
        {
          "internalType": "uint256",
          "name": "",
          "type": "uint256"
        }
      ],
      "stateMutability": "view",
      "type": "function",
      "constant": true
    }
  ],
  "bytecode": "0x6080604052631dcd65006005553480156200001957600080fd5b5060405162001f5a38038062001f5a83398181016040528101906200003f919062000329565b6040518060400160405280600881526020017f46616e546f6b656e0000000000000000000000000000000000000000000000008152506040518060400160405280600381526020017f464e5400000000000000000000000000000000000000000000000000000000008152508160039080519060200190620000c392919062000262565b508060049080519060200190620000dc92919062000262565b505050620000f13382620000f860201b60201c565b506200051b565b600073ffffffffffffffffffffffffffffffffffffffff168273ffffffffffffffffffffffffffffffffffffffff1614156200016b576040517f08c379a000000000000000000000000000000000000000000000000000000000815260040162000162906200038d565b60405180910390fd5b6200017f600083836200025d60201b60201c565b8060026000828254620001939190620003dd565b92505081905550806000808473ffffffffffffffffffffffffffffffffffffffff1673ffffffffffffffffffffffffffffffffffffffff1681526020019081526020016000206000828254620001ea9190620003dd565b925050819055508173ffffffffffffffffffffffffffffffffffffffff16600073ffffffffffffffffffffffffffffffffffffffff167fddf252ad1be2c89b69c2b068fc378daa952ba7f163c4a11628f55a4df523b3ef83604051620002519190620003af565b60405180910390a35050565b505050565b828054620002709062000444565b90600052602060002090601f016020900481019282620002945760008555620002e0565b82601f10620002af57805160ff1916838001178555620002e0565b82800160010185558215620002e0579182015b82811115620002df578251825591602001919060010190620002c2565b5b509050620002ef9190620002f3565b5090565b5b808211156200030e576000816000905550600101620002f4565b5090565b600081519050620003238162000501565b92915050565b6000602082840312156200033c57600080fd5b60006200034c8482850162000312565b91505092915050565b600062000364601f83620003cc565b91506200037182620004d8565b602082019050919050565b62000387816200043a565b82525050565b60006020820190508181036000830152620003a88162000355565b9050919050565b6000602082019050620003c660008301846200037c565b92915050565b600082825260208201905092915050565b6000620003ea826200043a565b9150620003f7836200043a565b9250827fffffffffffffffffffffffffffffffffffffffffffffffffffffffffffffffff038211156200042f576200042e6200047a565b5b828201905092915050565b6000819050919050565b600060028204905060018216806200045d57607f821691505b60208210811415620004745762000473620004a9565b5b50919050565b7f4e487b7100000000000000000000000000000000000000000000000000000000600052601160045260246000fd5b7f4e487b7100000000000000000000000000000000000000000000000000000000600052602260045260246000fd5b7f45524332303a206d696e7420746f20746865207a65726f206164647265737300600082015250565b6200050c816200043a565b81146200051857600080fd5b50565b611a2f806200052b6000396000f3fe608060405234801561001057600080fd5b50600436106100ea5760003560e01c806370a082311161008c578063a119a86911610066578063a119a8691461025f578063a457c2d71461028f578063a9059cbb146102bf578063dd62ed3e146102ef576100ea565b806370a08231146101f557806379cc67901461022557806395d89b4114610241576100ea565b806323b872dd116100c857806323b872dd1461015b578063313ce5671461018b57806339509351146101a957806342966c68146101d9576100ea565b806306fdde03146100ef578063095ea7b31461010d57806318160ddd1461013d575b600080fd5b6100f761031f565b60405161010491906112ee565b60405180910390f35b610127600480360381019061012291906110aa565b6103b1565b60405161013491906112d3565b60405180910390f35b6101456103cf565b6040516101529190611450565b60405180910390f35b6101756004803603810190610170919061105b565b6103d9565b60405161018291906112d3565b60405180910390f35b6101936103f7565b6040516101a0919061146b565b60405180910390f35b6101c360048036038101906101be91906110aa565b610400565b6040516101d091906112d3565b60405180910390f35b6101f360048036038101906101ee91906110e6565b6104ac565b005b61020f600480360381019061020a9190610ff6565b6104c0565b60405161021c9190611450565b60405180910390f35b61023f600480360381019061023a91906110aa565b610508565b005b61024961058c565b60405161025691906112ee565b60405180910390f35b610279600480360381019061027491906110e6565b61061e565b6040516102869190611450565b60405180910390f35b6102a960048036038101906102a491906110aa565b610683565b6040516102b691906112d3565b60405180910390f35b6102d960048036038101906102d491906110aa565b610777565b6040516102e691906112d3565b60405180910390f35b6103096004803603810190610304919061101f565b610793565b6040516103169190611450565b60405180910390f35b60606003805461032e906115e5565b80601f016020809104026020016040519081016040528092919081815260200182805461035a906115e5565b80156103a75780601f1061037c576101008083540402835291602001916103a7565b820191906000526020600020905b81548152906001019060200180831161038a57829003601f168201915b5050505050905090565b60006103c56103be61081a565b8484610822565b6001905092915050565b6000600254905090565b60006103ee84846103e9856109ed565b610a29565b90509392505050565b60006012905090565b60006104a261040d61081a565b84846001600061041b61081a565b73ffffffffffffffffffffffffffffffffffffffff1673ffffffffffffffffffffffffffffffffffffffff16815260200190815260200160002060008873ffffffffffffffffffffffffffffffffffffffff1673ffffffffffffffffffffffffffffffffffffffff1681526020019081526020016000205461049d91906114a2565b610822565b6001905092915050565b6104bd6104b761081a565b82610b2a565b50565b60008060008373ffffffffffffffffffffffffffffffffffffffff1673ffffffffffffffffffffffffffffffffffffffff168152602001908152602001600020549050919050565b600061051b8361051661081a565b610793565b905081811015610560576040517f08c379a0000000000000000000000000000000000000000000000000000000008152600401610557906113b0565b60405180910390fd5b61057d8361056c61081a565b84846105789190611529565b610822565b6105878383610b2a565b505050565b60606004805461059b906115e5565b80601f01602080910402602001604051908101604052809291908181526020018280546105c7906115e5565b80156106145780601f106105e957610100808354040283529160200191610614565b820191906000526020600020905b8154815290600101906020018083116105f757829003601f168201915b5050505050905090565b600080600090506005546106306103cf565b111561067a5761064a601484610cfe90919063ffffffff16565b9050600061066a60055461065c6103cf565b610d1490919063ffffffff16565b905080821115610678578091505b505b80915050919050565b6000806001600061069261081a565b73ffffffffffffffffffffffffffffffffffffffff1673ffffffffffffffffffffffffffffffffffffffff16815260200190815260200160002060008573ffffffffffffffffffffffffffffffffffffffff1673ffffffffffffffffffffffffffffffffffffffff1681526020019081526020016000205490508281101561074f576040517f08c379a000000000000000000000000000000000000000000000000000000000815260040161074690611430565b60405180910390fd5b61076c61075a61081a565b8585846107679190611529565b610822565b600191505092915050565b600061078b83610786846109ed565b610d2a565b905092915050565b6000600160008473ffffffffffffffffffffffffffffffffffffffff1673ffffffffffffffffffffffffffffffffffffffff16815260200190815260200160002060008373ffffffffffffffffffffffffffffffffffffffff1673ffffffffffffffffffffffffffffffffffffffff16815260200190815260200160002054905092915050565b600033905090565b600073ffffffffffffffffffffffffffffffffffffffff168373ffffffffffffffffffffffffffffffffffffffff161415610892576040517f08c379a000000000000000000000000000000000000000000000000000000000815260040161088990611410565b60405180910390fd5b600073ffffffffffffffffffffffffffffffffffffffff168273ffffffffffffffffffffffffffffffffffffffff161415610902576040517f08c379a00000000000000000000000000000000000000000000000000000000081526004016108f990611350565b60405180910390fd5b80600160008573ffffffffffffffffffffffffffffffffffffffff1673ffffffffffffffffffffffffffffffffffffffff16815260200190815260200160002060008473ffffffffffffffffffffffffffffffffffffffff1673ffffffffffffffffffffffffffffffffffffffff168152602001908152602001600020819055508173ffffffffffffffffffffffffffffffffffffffff168373ffffffffffffffffffffffffffffffffffffffff167f8c5be1e5ebec7d5bd14f71427d1e84f3dd0314c0f7b2291e5b200ac8c7c3b925836040516109e09190611450565b60405180910390a3505050565b6000806109f98361061e565b90506000811115610a0e57610a0d816104ac565b5b610a218184610d1490919063ffffffff16565b915050919050565b6000610a36848484610d48565b6000600160008673ffffffffffffffffffffffffffffffffffffffff1673ffffffffffffffffffffffffffffffffffffffff1681526020019081526020016000206000610a8161081a565b73ffffffffffffffffffffffffffffffffffffffff1673ffffffffffffffffffffffffffffffffffffffff16815260200190815260200160002054905082811015610b01576040517f08c379a0000000000000000000000000000000000000000000000000000000008152600401610af890611390565b60405180910390fd5b610b1e85610b0d61081a565b8584610b199190611529565b610822565b60019150509392505050565b600073ffffffffffffffffffffffffffffffffffffffff168273ffffffffffffffffffffffffffffffffffffffff161415610b9a576040517f08c379a0000000000000000000000000000000000000000000000000000000008152600401610b91906113d0565b60405180910390fd5b610ba682600083610fc7565b60008060008473ffffffffffffffffffffffffffffffffffffffff1673ffffffffffffffffffffffffffffffffffffffff16815260200190815260200160002054905081811015610c2c576040517f08c379a0000000000000000000000000000000000000000000000000000000008152600401610c2390611330565b60405180910390fd5b8181610c389190611529565b6000808573ffffffffffffffffffffffffffffffffffffffff1673ffffffffffffffffffffffffffffffffffffffff168152602001908152602001600020819055508160026000828254610c8c9190611529565b92505081905550600073ffffffffffffffffffffffffffffffffffffffff168373ffffffffffffffffffffffffffffffffffffffff167fddf252ad1be2c89b69c2b068fc378daa952ba7f163c4a11628f55a4df523b3ef84604051610cf19190611450565b60405180910390a3505050565b60008183610d0c91906114f8565b905092915050565b60008183610d229190611529565b905092915050565b6000610d3e610d3761081a565b8484610d48565b6001905092915050565b600073ffffffffffffffffffffffffffffffffffffffff168373ffffffffffffffffffffffffffffffffffffffff161415610db8576040517f08c379a0000000000000000000000000000000000000000000000000000000008152600401610daf906113f0565b60405180910390fd5b600073ffffffffffffffffffffffffffffffffffffffff168273ffffffffffffffffffffffffffffffffffffffff161415610e28576040517f08c379a0000000000000000000000000000000000000000000000000000000008152600401610e1f90611310565b60405180910390fd5b610e33838383610fc7565b60008060008573ffffffffffffffffffffffffffffffffffffffff1673ffffffffffffffffffffffffffffffffffffffff16815260200190815260200160002054905081811015610eb9576040517f08c379a0000000000000000000000000000000000000000000000000000000008152600401610eb090611370565b60405180910390fd5b8181610ec59190611529565b6000808673ffffffffffffffffffffffffffffffffffffffff1673ffffffffffffffffffffffffffffffffffffffff16815260200190815260200160002081905550816000808573ffffffffffffffffffffffffffffffffffffffff1673ffffffffffffffffffffffffffffffffffffffff1681526020019081526020016000206000828254610f5591906114a2565b925050819055508273ffffffffffffffffffffffffffffffffffffffff168473ffffffffffffffffffffffffffffffffffffffff167fddf252ad1be2c89b69c2b068fc378daa952ba7f163c4a11628f55a4df523b3ef84604051610fb99190611450565b60405180910390a350505050565b505050565b600081359050610fdb816119cb565b92915050565b600081359050610ff0816119e2565b92915050565b60006020828403121561100857600080fd5b600061101684828501610fcc565b91505092915050565b6000806040838503121561103257600080fd5b600061104085828601610fcc565b925050602061105185828601610fcc565b9150509250929050565b60008060006060848603121561107057600080fd5b600061107e86828701610fcc565b935050602061108f86828701610fcc565b92505060406110a086828701610fe1565b9150509250925092565b600080604083850312156110bd57600080fd5b60006110cb85828601610fcc565b92505060206110dc85828601610fe1565b9150509250929050565b6000602082840312156110f857600080fd5b600061110684828501610fe1565b91505092915050565b6111188161156f565b82525050565b600061112982611486565b6111338185611491565b93506111438185602086016115b2565b61114c816116a4565b840191505092915050565b6000611164602383611491565b915061116f826116b5565b604082019050919050565b6000611187602283611491565b915061119282611704565b604082019050919050565b60006111aa602283611491565b91506111b582611753565b604082019050919050565b60006111cd602683611491565b91506111d8826117a2565b604082019050919050565b60006111f0602883611491565b91506111fb826117f1565b604082019050919050565b6000611213602483611491565b915061121e82611840565b604082019050919050565b6000611236602183611491565b91506112418261188f565b604082019050919050565b6000611259602583611491565b9150611264826118de565b604082019050919050565b600061127c602483611491565b91506112878261192d565b604082019050919050565b600061129f602583611491565b91506112aa8261197c565b604082019050919050565b6112be8161159b565b82525050565b6112cd816115a5565b82525050565b60006020820190506112e8600083018461110f565b92915050565b60006020820190508181036000830152611308818461111e565b905092915050565b6000602082019050818103600083015261132981611157565b9050919050565b600060208201905081810360008301526113498161117a565b9050919050565b600060208201905081810360008301526113698161119d565b9050919050565b60006020820190508181036000830152611389816111c0565b9050919050565b600060208201905081810360008301526113a9816111e3565b9050919050565b600060208201905081810360008301526113c981611206565b9050919050565b600060208201905081810360008301526113e981611229565b9050919050565b600060208201905081810360008301526114098161124c565b9050919050565b600060208201905081810360008301526114298161126f565b9050919050565b6000602082019050818103600083015261144981611292565b9050919050565b600060208201905061146560008301846112b5565b92915050565b600060208201905061148060008301846112c4565b92915050565b600081519050919050565b600082825260208201905092915050565b60006114ad8261159b565b91506114b88361159b565b9250827fffffffffffffffffffffffffffffffffffffffffffffffffffffffffffffffff038211156114ed576114ec611617565b5b828201905092915050565b60006115038261159b565b915061150e8361159b565b92508261151e5761151d611646565b5b828204905092915050565b60006115348261159b565b915061153f8361159b565b92508282101561155257611551611617565b5b828203905092915050565b60006115688261157b565b9050919050565b60008115159050919050565b600073ffffffffffffffffffffffffffffffffffffffff82169050919050565b6000819050919050565b600060ff82169050919050565b60005b838110156115d05780820151818401526020810190506115b5565b838111156115df576000848401525b50505050565b600060028204905060018216806115fd57607f821691505b6020821081141561161157611610611675565b5b50919050565b7f4e487b7100000000000000000000000000000000000000000000000000000000600052601160045260246000fd5b7f4e487b7100000000000000000000000000000000000000000000000000000000600052601260045260246000fd5b7f4e487b7100000000000000000000000000000000000000000000000000000000600052602260045260246000fd5b6000601f19601f8301169050919050565b7f45524332303a207472616e7366657220746f20746865207a65726f206164647260008201527f6573730000000000000000000000000000000000000000000000000000000000602082015250565b7f45524332303a206275726e20616d6f756e7420657863656564732062616c616e60008201527f6365000000000000000000000000000000000000000000000000000000000000602082015250565b7f45524332303a20617070726f766520746f20746865207a65726f20616464726560008201527f7373000000000000000000000000000000000000000000000000000000000000602082015250565b7f45524332303a207472616e7366657220616d6f756e742065786365656473206260008201527f616c616e63650000000000000000000000000000000000000000000000000000602082015250565b7f45524332303a207472616e7366657220616d6f756e742065786365656473206160008201527f6c6c6f77616e6365000000000000000000000000000000000000000000000000602082015250565b7f45524332303a206275726e20616d6f756e74206578636565647320616c6c6f7760008201527f616e636500000000000000000000000000000000000000000000000000000000602082015250565b7f45524332303a206275726e2066726f6d20746865207a65726f2061646472657360008201527f7300000000000000000000000000000000000000000000000000000000000000602082015250565b7f45524332303a207472616e736665722066726f6d20746865207a65726f20616460008201527f6472657373000000000000000000000000000000000000000000000000000000602082015250565b7f45524332303a20617070726f76652066726f6d20746865207a65726f2061646460008201527f7265737300000000000000000000000000000000000000000000000000000000602082015250565b7f45524332303a2064656372656173656420616c6c6f77616e63652062656c6f7760008201527f207a65726f000000000000000000000000000000000000000000000000000000602082015250565b6119d48161155d565b81146119df57600080fd5b50565b6119eb8161159b565b81146119f657600080fd5b5056fea26469706673582212204720191b0e928295cfebb904d1e8780b61e904f0aeba322dfa097019410df39164736f6c63430008040033",
  "immutableReferences": {},
  "source": "// SPDX-License-Identifier: MIT\npragma solidity ^0.8.0;\nimport \"@openzeppelin/contracts/token/ERC20/extensions/ERC20Burnable.sol\";\nimport \"@openzeppelin/contracts/utils/math/SafeMath.sol\";\n//\nimport \"./crowdsale.sol\";\n\n\ncontract myToken is ERC20Burnable {\n    \n    using SafeMath for uint256;\n\n    constructor(uint256 initialSupply) ERC20(\"FanToken\", \"FNT\") {\n        _mint(msg.sender, initialSupply);\n    }\n\n    uint private _minimumSupply=500000000; //\n\n\tfunction transfer(address recipient, uint256 amount) public override returns (bool) {\n        return super.transfer(recipient, partialBurn(amount));\n    }\n\n\tfunction transferFrom(address sender, address recipient, uint256 amount) public override returns (bool) {\n        return super.transferFrom(sender ,recipient, partialBurn(amount));\n    }\n\n\tfunction partialBurn(uint256 amount) internal returns (uint256) {\n        uint256 burnAmount = _calculateBurnAmount(amount);\n\n        if (burnAmount > 0) {\n            burn(burnAmount); // note that burn function dedrements tokens from total supply by its own\n        }\n\n        return amount.sub(burnAmount);\n    }\n\n\tfunction _calculateBurnAmount(uint256 amount) public view returns (uint256) {\n        \n        uint256 burnAmount = 0;\n\n        // burn amount calculations\n        if (totalSupply() > _minimumSupply) {\n            burnAmount = amount.div(20); //burn 5 % ... note that in transfers of volume as low as 20 tokens won't be burnt any\n            uint256 availableBurn = totalSupply().sub(_minimumSupply);\n        \tif (burnAmount > availableBurn) {\n                burnAmount = availableBurn;\n            }\n        }\n\n        return burnAmount;\n    }\n\n\n }",
  "sourcePath": "/Users/fante/Documents/github/solidity_projects/erc20Token/contracts/myToken.sol",
  "compiler": {
    "name": "solc",
    "version": "0.8.4+commit.c7e474f2.Emscripten.clang"
  },
  "schemaVersion": "3.4.0",
  "updatedAt": "2021-05-16T10:30:41.637Z",
  "networkType": "ethereum",
  "devdoc": {
    "kind": "dev",
    "methods": {
      "allowance(address,address)": {
        "details": "See {IERC20-allowance}."
      },
      "approve(address,uint256)": {
        "details": "See {IERC20-approve}. Requirements: - `spender` cannot be the zero address."
      },
      "balanceOf(address)": {
        "details": "See {IERC20-balanceOf}."
      },
      "burn(uint256)": {
        "details": "Destroys `amount` tokens from the caller. See {ERC20-_burn}."
      },
      "burnFrom(address,uint256)": {
        "details": "Destroys `amount` tokens from `account`, deducting from the caller's allowance. See {ERC20-_burn} and {ERC20-allowance}. Requirements: - the caller must have allowance for ``accounts``'s tokens of at least `amount`."
      },
      "decimals()": {
        "details": "Returns the number of decimals used to get its user representation. For example, if `decimals` equals `2`, a balance of `505` tokens should be displayed to a user as `5,05` (`505 / 10 ** 2`). Tokens usually opt for a value of 18, imitating the relationship between Ether and Wei. This is the value {ERC20} uses, unless this function is overridden; NOTE: This information is only used for _display_ purposes: it in no way affects any of the arithmetic of the contract, including {IERC20-balanceOf} and {IERC20-transfer}."
      },
      "decreaseAllowance(address,uint256)": {
        "details": "Atomically decreases the allowance granted to `spender` by the caller. This is an alternative to {approve} that can be used as a mitigation for problems described in {IERC20-approve}. Emits an {Approval} event indicating the updated allowance. Requirements: - `spender` cannot be the zero address. - `spender` must have allowance for the caller of at least `subtractedValue`."
      },
      "increaseAllowance(address,uint256)": {
        "details": "Atomically increases the allowance granted to `spender` by the caller. This is an alternative to {approve} that can be used as a mitigation for problems described in {IERC20-approve}. Emits an {Approval} event indicating the updated allowance. Requirements: - `spender` cannot be the zero address."
      },
      "name()": {
        "details": "Returns the name of the token."
      },
      "symbol()": {
        "details": "Returns the symbol of the token, usually a shorter version of the name."
      },
      "totalSupply()": {
        "details": "See {IERC20-totalSupply}."
      },
      "transfer(address,uint256)": {
        "details": "See {IERC20-transfer}. Requirements: - `recipient` cannot be the zero address. - the caller must have a balance of at least `amount`."
      },
      "transferFrom(address,address,uint256)": {
        "details": "See {IERC20-transferFrom}. Emits an {Approval} event indicating the updated allowance. This is not required by the EIP. See the note at the beginning of {ERC20}. Requirements: - `sender` and `recipient` cannot be the zero address. - `sender` must have a balance of at least `amount`. - the caller must have allowance for ``sender``'s tokens of at least `amount`."
      }
    },
    "version": 1
  },
  "userdoc": {
    "kind": "user",
    "methods": {},
    "version": 1
  }
}