{
  "contractName": "myToken",
  "abi": [
    {
      "inputs": [
        {
          "internalType": "uint256",
          "name": "initialSupply",
          "type": "uint256"
        }
      ],
      "stateMutability": "nonpayable",
      "type": "constructor"
    },
    {
      "anonymous": false,
      "inputs": [
        {
          "indexed": true,
          "internalType": "address",
          "name": "owner",
          "type": "address"
        },
        {
          "indexed": true,
          "internalType": "address",
          "name": "spender",
          "type": "address"
        },
        {
          "indexed": false,
          "internalType": "uint256",
          "name": "value",
          "type": "uint256"
        }
      ],
      "name": "Approval",
      "type": "event"
    },
    {
      "anonymous": false,
      "inputs": [
        {
          "indexed": true,
          "internalType": "address",
          "name": "from",
          "type": "address"
        },
        {
          "indexed": true,
          "internalType": "address",
          "name": "to",
          "type": "address"
        },
        {
          "indexed": false,
          "internalType": "uint256",
          "name": "value",
          "type": "uint256"
        }
      ],
      "name": "Transfer",
      "type": "event"
    },
    {
      "inputs": [
        {
          "internalType": "address",
          "name": "owner",
          "type": "address"
        },
        {
          "internalType": "address",
          "name": "spender",
          "type": "address"
        }
      ],
      "name": "allowance",
      "outputs": [
        {
          "internalType": "uint256",
          "name": "",
          "type": "uint256"
        }
      ],
      "stateMutability": "view",
      "type": "function",
      "constant": true
    },
    {
      "inputs": [
        {
          "internalType": "address",
          "name": "spender",
          "type": "address"
        },
        {
          "internalType": "uint256",
          "name": "amount",
          "type": "uint256"
        }
      ],
      "name": "approve",
      "outputs": [
        {
          "internalType": "bool",
          "name": "",
          "type": "bool"
        }
      ],
      "stateMutability": "nonpayable",
      "type": "function"
    },
    {
      "inputs": [
        {
          "internalType": "address",
          "name": "account",
          "type": "address"
        }
      ],
      "name": "balanceOf",
      "outputs": [
        {
          "internalType": "uint256",
          "name": "",
          "type": "uint256"
        }
      ],
      "stateMutability": "view",
      "type": "function",
      "constant": true
    },
    {
      "inputs": [],
      "name": "decimals",
      "outputs": [
        {
          "internalType": "uint8",
          "name": "",
          "type": "uint8"
        }
      ],
      "stateMutability": "view",
      "type": "function",
      "constant": true
    },
    {
      "inputs": [
        {
          "internalType": "address",
          "name": "spender",
          "type": "address"
        },
        {
          "internalType": "uint256",
          "name": "subtractedValue",
          "type": "uint256"
        }
      ],
      "name": "decreaseAllowance",
      "outputs": [
        {
          "internalType": "bool",
          "name": "",
          "type": "bool"
        }
      ],
      "stateMutability": "nonpayable",
      "type": "function"
    },
    {
      "inputs": [
        {
          "internalType": "address",
          "name": "spender",
          "type": "address"
        },
        {
          "internalType": "uint256",
          "name": "addedValue",
          "type": "uint256"
        }
      ],
      "name": "increaseAllowance",
      "outputs": [
        {
          "internalType": "bool",
          "name": "",
          "type": "bool"
        }
      ],
      "stateMutability": "nonpayable",
      "type": "function"
    },
    {
      "inputs": [],
      "name": "name",
      "outputs": [
        {
          "internalType": "string",
          "name": "",
          "type": "string"
        }
      ],
      "stateMutability": "view",
      "type": "function",
      "constant": true
    },
    {
      "inputs": [],
      "name": "symbol",
      "outputs": [
        {
          "internalType": "string",
          "name": "",
          "type": "string"
        }
      ],
      "stateMutability": "view",
      "type": "function",
      "constant": true
    },
    {
      "inputs": [],
      "name": "totalSupply",
      "outputs": [
        {
          "internalType": "uint256",
          "name": "",
          "type": "uint256"
        }
      ],
      "stateMutability": "view",
      "type": "function",
      "constant": true
    },
    {
      "inputs": [
        {
          "internalType": "address",
          "name": "recipient",
          "type": "address"
        },
        {
          "internalType": "uint256",
          "name": "amount",
          "type": "uint256"
        }
      ],
      "name": "transfer",
      "outputs": [
        {
          "internalType": "bool",
          "name": "",
          "type": "bool"
        }
      ],
      "stateMutability": "nonpayable",
      "type": "function"
    },
    {
      "inputs": [
        {
          "internalType": "address",
          "name": "sender",
          "type": "address"
        },
        {
          "internalType": "address",
          "name": "recipient",
          "type": "address"
        },
        {
          "internalType": "uint256",
          "name": "amount",
          "type": "uint256"
        }
      ],
      "name": "transferFrom",
      "outputs": [
        {
          "internalType": "bool",
          "name": "",
          "type": "bool"
        }
      ],
      "stateMutability": "nonpayable",
      "type": "function"
    },
    {
      "inputs": [
        {
          "internalType": "uint256",
          "name": "amount",
          "type": "uint256"
        }
      ],
      "name": "_calculateBurnAmount",
      "outputs": [
        {
          "internalType": "uint256",
          "name": "",
          "type": "uint256"
        }
      ],
      "stateMutability": "view",
      "type": "function",
      "constant": true
    }
  ],
  "bytecode": "0x60806040526200002e60026200001a6200011d60201b60201c565b6200012760201b620007141790919060201c565b6005553480156200003e57600080fd5b5060405162001e7138038062001e71833981810160405281019062000064919062000370565b6040518060400160405280600881526020017f46616e546f6b656e0000000000000000000000000000000000000000000000008152506040518060400160405280600381526020017f464e5400000000000000000000000000000000000000000000000000000000008152508160039080519060200190620000e8929190620002a9565b50806004908051906020019062000101929190620002a9565b5050506200011633826200013f60201b60201c565b50620005c9565b6000600254905090565b6000818362000137919062000481565b905092915050565b600073ffffffffffffffffffffffffffffffffffffffff168273ffffffffffffffffffffffffffffffffffffffff161415620001b2576040517f08c379a0000000000000000000000000000000000000000000000000000000008152600401620001a990620003d4565b60405180910390fd5b620001c660008383620002a460201b60201c565b8060026000828254620001da919062000424565b92505081905550806000808473ffffffffffffffffffffffffffffffffffffffff1673ffffffffffffffffffffffffffffffffffffffff168152602001908152602001600020600082825462000231919062000424565b925050819055508173ffffffffffffffffffffffffffffffffffffffff16600073ffffffffffffffffffffffffffffffffffffffff167fddf252ad1be2c89b69c2b068fc378daa952ba7f163c4a11628f55a4df523b3ef83604051620002989190620003f6565b60405180910390a35050565b505050565b828054620002b790620004c3565b90600052602060002090601f016020900481019282620002db576000855562000327565b82601f10620002f657805160ff191683800117855562000327565b8280016001018555821562000327579182015b828111156200032657825182559160200191906001019062000309565b5b5090506200033691906200033a565b5090565b5b80821115620003555760008160009055506001016200033b565b5090565b6000815190506200036a81620005af565b92915050565b6000602082840312156200038357600080fd5b6000620003938482850162000359565b91505092915050565b6000620003ab601f8362000413565b9150620003b88262000586565b602082019050919050565b620003ce81620004b9565b82525050565b60006020820190508181036000830152620003ef816200039c565b9050919050565b60006020820190506200040d6000830184620003c3565b92915050565b600082825260208201905092915050565b60006200043182620004b9565b91506200043e83620004b9565b9250827fffffffffffffffffffffffffffffffffffffffffffffffffffffffffffffffff03821115620004765762000475620004f9565b5b828201905092915050565b60006200048e82620004b9565b91506200049b83620004b9565b925082620004ae57620004ad62000528565b5b828204905092915050565b6000819050919050565b60006002820490506001821680620004dc57607f821691505b60208210811415620004f357620004f262000557565b5b50919050565b7f4e487b7100000000000000000000000000000000000000000000000000000000600052601160045260246000fd5b7f4e487b7100000000000000000000000000000000000000000000000000000000600052601260045260246000fd5b7f4e487b7100000000000000000000000000000000000000000000000000000000600052602260045260246000fd5b7f45524332303a206d696e7420746f20746865207a65726f206164647265737300600082015250565b620005ba81620004b9565b8114620005c657600080fd5b50565b61189880620005d96000396000f3fe608060405234801561001057600080fd5b50600436106100b45760003560e01c806370a082311161007157806370a08231146101a357806395d89b41146101d3578063a119a869146101f1578063a457c2d714610221578063a9059cbb14610251578063dd62ed3e14610281576100b4565b806306fdde03146100b9578063095ea7b3146100d757806318160ddd1461010757806323b872dd14610125578063313ce567146101555780633950935114610173575b600080fd5b6100c16102b1565b6040516100ce91906111c6565b60405180910390f35b6100f160048036038101906100ec9190610fa5565b610343565b6040516100fe91906111ab565b60405180910390f35b61010f610361565b60405161011c9190611308565b60405180910390f35b61013f600480360381019061013a9190610f56565b61036b565b60405161014c91906111ab565b60405180910390f35b61015d610389565b60405161016a9190611323565b60405180910390f35b61018d60048036038101906101889190610fa5565b610392565b60405161019a91906111ab565b60405180910390f35b6101bd60048036038101906101b89190610ef1565b61043e565b6040516101ca9190611308565b60405180910390f35b6101db610486565b6040516101e891906111c6565b60405180910390f35b61020b60048036038101906102069190610fe1565b610518565b6040516102189190611308565b60405180910390f35b61023b60048036038101906102369190610fa5565b61057d565b60405161024891906111ab565b60405180910390f35b61026b60048036038101906102669190610fa5565b610671565b60405161027891906111ab565b60405180910390f35b61029b60048036038101906102969190610f1a565b61068d565b6040516102a89190611308565b60405180910390f35b6060600380546102c09061149d565b80601f01602080910402602001604051908101604052809291908181526020018280546102ec9061149d565b80156103395780601f1061030e57610100808354040283529160200191610339565b820191906000526020600020905b81548152906001019060200180831161031c57829003601f168201915b5050505050905090565b600061035761035061072a565b8484610732565b6001905092915050565b6000600254905090565b6000610380848461037b856108fd565b61093a565b90509392505050565b60006012905090565b600061043461039f61072a565b8484600160006103ad61072a565b73ffffffffffffffffffffffffffffffffffffffff1673ffffffffffffffffffffffffffffffffffffffff16815260200190815260200160002060008873ffffffffffffffffffffffffffffffffffffffff1673ffffffffffffffffffffffffffffffffffffffff1681526020019081526020016000205461042f919061135a565b610732565b6001905092915050565b60008060008373ffffffffffffffffffffffffffffffffffffffff1673ffffffffffffffffffffffffffffffffffffffff168152602001908152602001600020549050919050565b6060600480546104959061149d565b80601f01602080910402602001604051908101604052809291908181526020018280546104c19061149d565b801561050e5780601f106104e35761010080835404028352916020019161050e565b820191906000526020600020905b8154815290600101906020018083116104f157829003601f168201915b5050505050905090565b6000806000905060055461052a610361565b11156105745761054460148461071490919063ffffffff16565b90506000610564600554610556610361565b610a3b90919063ffffffff16565b905080821115610572578091505b505b80915050919050565b6000806001600061058c61072a565b73ffffffffffffffffffffffffffffffffffffffff1673ffffffffffffffffffffffffffffffffffffffff16815260200190815260200160002060008573ffffffffffffffffffffffffffffffffffffffff1673ffffffffffffffffffffffffffffffffffffffff16815260200190815260200160002054905082811015610649576040517f08c379a0000000000000000000000000000000000000000000000000000000008152600401610640906112e8565b60405180910390fd5b61066661065461072a565b85858461066191906113e1565b610732565b600191505092915050565b600061068583610680846108fd565b610a51565b905092915050565b6000600160008473ffffffffffffffffffffffffffffffffffffffff1673ffffffffffffffffffffffffffffffffffffffff16815260200190815260200160002060008373ffffffffffffffffffffffffffffffffffffffff1673ffffffffffffffffffffffffffffffffffffffff16815260200190815260200160002054905092915050565b6000818361072291906113b0565b905092915050565b600033905090565b600073ffffffffffffffffffffffffffffffffffffffff168373ffffffffffffffffffffffffffffffffffffffff1614156107a2576040517f08c379a0000000000000000000000000000000000000000000000000000000008152600401610799906112c8565b60405180910390fd5b600073ffffffffffffffffffffffffffffffffffffffff168273ffffffffffffffffffffffffffffffffffffffff161415610812576040517f08c379a000000000000000000000000000000000000000000000000000000000815260040161080990611228565b60405180910390fd5b80600160008573ffffffffffffffffffffffffffffffffffffffff1673ffffffffffffffffffffffffffffffffffffffff16815260200190815260200160002060008473ffffffffffffffffffffffffffffffffffffffff1673ffffffffffffffffffffffffffffffffffffffff168152602001908152602001600020819055508173ffffffffffffffffffffffffffffffffffffffff168373ffffffffffffffffffffffffffffffffffffffff167f8c5be1e5ebec7d5bd14f71427d1e84f3dd0314c0f7b2291e5b200ac8c7c3b925836040516108f09190611308565b60405180910390a3505050565b60008061090983610518565b9050600081111561091f5761091e3382610a6f565b5b6109328184610a3b90919063ffffffff16565b915050919050565b6000610947848484610c43565b6000600160008673ffffffffffffffffffffffffffffffffffffffff1673ffffffffffffffffffffffffffffffffffffffff168152602001908152602001600020600061099261072a565b73ffffffffffffffffffffffffffffffffffffffff1673ffffffffffffffffffffffffffffffffffffffff16815260200190815260200160002054905082811015610a12576040517f08c379a0000000000000000000000000000000000000000000000000000000008152600401610a0990611268565b60405180910390fd5b610a2f85610a1e61072a565b8584610a2a91906113e1565b610732565b60019150509392505050565b60008183610a4991906113e1565b905092915050565b6000610a65610a5e61072a565b8484610c43565b6001905092915050565b600073ffffffffffffffffffffffffffffffffffffffff168273ffffffffffffffffffffffffffffffffffffffff161415610adf576040517f08c379a0000000000000000000000000000000000000000000000000000000008152600401610ad690611288565b60405180910390fd5b610aeb82600083610ec2565b60008060008473ffffffffffffffffffffffffffffffffffffffff1673ffffffffffffffffffffffffffffffffffffffff16815260200190815260200160002054905081811015610b71576040517f08c379a0000000000000000000000000000000000000000000000000000000008152600401610b6890611208565b60405180910390fd5b8181610b7d91906113e1565b6000808573ffffffffffffffffffffffffffffffffffffffff1673ffffffffffffffffffffffffffffffffffffffff168152602001908152602001600020819055508160026000828254610bd191906113e1565b92505081905550600073ffffffffffffffffffffffffffffffffffffffff168373ffffffffffffffffffffffffffffffffffffffff167fddf252ad1be2c89b69c2b068fc378daa952ba7f163c4a11628f55a4df523b3ef84604051610c369190611308565b60405180910390a3505050565b600073ffffffffffffffffffffffffffffffffffffffff168373ffffffffffffffffffffffffffffffffffffffff161415610cb3576040517f08c379a0000000000000000000000000000000000000000000000000000000008152600401610caa906112a8565b60405180910390fd5b600073ffffffffffffffffffffffffffffffffffffffff168273ffffffffffffffffffffffffffffffffffffffff161415610d23576040517f08c379a0000000000000000000000000000000000000000000000000000000008152600401610d1a906111e8565b60405180910390fd5b610d2e838383610ec2565b60008060008573ffffffffffffffffffffffffffffffffffffffff1673ffffffffffffffffffffffffffffffffffffffff16815260200190815260200160002054905081811015610db4576040517f08c379a0000000000000000000000000000000000000000000000000000000008152600401610dab90611248565b60405180910390fd5b8181610dc091906113e1565b6000808673ffffffffffffffffffffffffffffffffffffffff1673ffffffffffffffffffffffffffffffffffffffff16815260200190815260200160002081905550816000808573ffffffffffffffffffffffffffffffffffffffff1673ffffffffffffffffffffffffffffffffffffffff1681526020019081526020016000206000828254610e50919061135a565b925050819055508273ffffffffffffffffffffffffffffffffffffffff168473ffffffffffffffffffffffffffffffffffffffff167fddf252ad1be2c89b69c2b068fc378daa952ba7f163c4a11628f55a4df523b3ef84604051610eb49190611308565b60405180910390a350505050565b505050565b600081359050610ed681611834565b92915050565b600081359050610eeb8161184b565b92915050565b600060208284031215610f0357600080fd5b6000610f1184828501610ec7565b91505092915050565b60008060408385031215610f2d57600080fd5b6000610f3b85828601610ec7565b9250506020610f4c85828601610ec7565b9150509250929050565b600080600060608486031215610f6b57600080fd5b6000610f7986828701610ec7565b9350506020610f8a86828701610ec7565b9250506040610f9b86828701610edc565b9150509250925092565b60008060408385031215610fb857600080fd5b6000610fc685828601610ec7565b9250506020610fd785828601610edc565b9150509250929050565b600060208284031215610ff357600080fd5b600061100184828501610edc565b91505092915050565b61101381611427565b82525050565b60006110248261133e565b61102e8185611349565b935061103e81856020860161146a565b6110478161155c565b840191505092915050565b600061105f602383611349565b915061106a8261156d565b604082019050919050565b6000611082602283611349565b915061108d826115bc565b604082019050919050565b60006110a5602283611349565b91506110b08261160b565b604082019050919050565b60006110c8602683611349565b91506110d38261165a565b604082019050919050565b60006110eb602883611349565b91506110f6826116a9565b604082019050919050565b600061110e602183611349565b9150611119826116f8565b604082019050919050565b6000611131602583611349565b915061113c82611747565b604082019050919050565b6000611154602483611349565b915061115f82611796565b604082019050919050565b6000611177602583611349565b9150611182826117e5565b604082019050919050565b61119681611453565b82525050565b6111a58161145d565b82525050565b60006020820190506111c0600083018461100a565b92915050565b600060208201905081810360008301526111e08184611019565b905092915050565b6000602082019050818103600083015261120181611052565b9050919050565b6000602082019050818103600083015261122181611075565b9050919050565b6000602082019050818103600083015261124181611098565b9050919050565b60006020820190508181036000830152611261816110bb565b9050919050565b60006020820190508181036000830152611281816110de565b9050919050565b600060208201905081810360008301526112a181611101565b9050919050565b600060208201905081810360008301526112c181611124565b9050919050565b600060208201905081810360008301526112e181611147565b9050919050565b600060208201905081810360008301526113018161116a565b9050919050565b600060208201905061131d600083018461118d565b92915050565b6000602082019050611338600083018461119c565b92915050565b600081519050919050565b600082825260208201905092915050565b600061136582611453565b915061137083611453565b9250827fffffffffffffffffffffffffffffffffffffffffffffffffffffffffffffffff038211156113a5576113a46114cf565b5b828201905092915050565b60006113bb82611453565b91506113c683611453565b9250826113d6576113d56114fe565b5b828204905092915050565b60006113ec82611453565b91506113f783611453565b92508282101561140a576114096114cf565b5b828203905092915050565b600061142082611433565b9050919050565b60008115159050919050565b600073ffffffffffffffffffffffffffffffffffffffff82169050919050565b6000819050919050565b600060ff82169050919050565b60005b8381101561148857808201518184015260208101905061146d565b83811115611497576000848401525b50505050565b600060028204905060018216806114b557607f821691505b602082108114156114c9576114c861152d565b5b50919050565b7f4e487b7100000000000000000000000000000000000000000000000000000000600052601160045260246000fd5b7f4e487b7100000000000000000000000000000000000000000000000000000000600052601260045260246000fd5b7f4e487b7100000000000000000000000000000000000000000000000000000000600052602260045260246000fd5b6000601f19601f8301169050919050565b7f45524332303a207472616e7366657220746f20746865207a65726f206164647260008201527f6573730000000000000000000000000000000000000000000000000000000000602082015250565b7f45524332303a206275726e20616d6f756e7420657863656564732062616c616e60008201527f6365000000000000000000000000000000000000000000000000000000000000602082015250565b7f45524332303a20617070726f766520746f20746865207a65726f20616464726560008201527f7373000000000000000000000000000000000000000000000000000000000000602082015250565b7f45524332303a207472616e7366657220616d6f756e742065786365656473206260008201527f616c616e63650000000000000000000000000000000000000000000000000000602082015250565b7f45524332303a207472616e7366657220616d6f756e742065786365656473206160008201527f6c6c6f77616e6365000000000000000000000000000000000000000000000000602082015250565b7f45524332303a206275726e2066726f6d20746865207a65726f2061646472657360008201527f7300000000000000000000000000000000000000000000000000000000000000602082015250565b7f45524332303a207472616e736665722066726f6d20746865207a65726f20616460008201527f6472657373000000000000000000000000000000000000000000000000000000602082015250565b7f45524332303a20617070726f76652066726f6d20746865207a65726f2061646460008201527f7265737300000000000000000000000000000000000000000000000000000000602082015250565b7f45524332303a2064656372656173656420616c6c6f77616e63652062656c6f7760008201527f207a65726f000000000000000000000000000000000000000000000000000000602082015250565b61183d81611415565b811461184857600080fd5b50565b61185481611453565b811461185f57600080fd5b5056fea26469706673582212207468fead28cf5583bc0c43361602b08a0900ab01ddd75822bb3b56eb75ce912e64736f6c63430008040033",
  "immutableReferences": {},
  "source": "// SPDX-License-Identifier: MIT\npragma solidity ^0.8.0;\nimport \"@openzeppelin/contracts/token/ERC20/ERC20.sol\";\nimport \"@openzeppelin/contracts/utils/math/SafeMath.sol\";\n//\nimport \"./crowdsale.sol\";\n\n\ncontract myToken is ERC20 {\n    \n    using SafeMath for uint256;\n\n    constructor(uint256 initialSupply) ERC20(\"FanToken\", \"FNT\") {\n        _mint(msg.sender, initialSupply);\n    }\n\n    uint _minimumSupply=totalSupply().div(2);\n\n\tfunction transfer(address recipient, uint256 amount) public override returns (bool) {\n        return super.transfer(recipient, partialBurn(amount));\n    }\n\n\tfunction transferFrom(address sender, address recipient, uint256 amount) public override returns (bool) {\n        return super.transferFrom(sender ,recipient, partialBurn(amount));\n    }\n\n\tfunction partialBurn(uint256 amount) internal returns (uint256) {\n        uint256 burnAmount = _calculateBurnAmount(amount);\n\n        if (burnAmount > 0) {\n            _burn(msg.sender, burnAmount); // note that burn function dedrements tokens from total supply by its own\n        }\n\n        return amount.sub(burnAmount);\n    }\n\n\tfunction _calculateBurnAmount(uint256 amount) public view returns (uint256) {\n        \n        uint256 burnAmount = 0;\n\n        // burn amount calculations\n        if (totalSupply() > _minimumSupply) {\n            burnAmount = amount.div(20); //burn 5 % ... note that in transfers of volume as low as 20 tokens won't be burnt any\n            uint256 availableBurn = totalSupply().sub(_minimumSupply);\n        if (burnAmount > availableBurn) {\n                burnAmount = availableBurn;\n            }\n        }\n\n        return burnAmount;\n    }\n\n\n }",
  "sourcePath": "/Users/fante/Documents/github/solidity_projects/erc20Token/contracts/myToken.sol",
  "compiler": {
    "name": "solc",
    "version": "0.8.4+commit.c7e474f2.Emscripten.clang"
  },
  "schemaVersion": "3.4.0",
  "updatedAt": "2021-05-11T13:19:49.132Z",
  "networkType": "ethereum",
  "devdoc": {
    "kind": "dev",
    "methods": {
      "allowance(address,address)": {
        "details": "See {IERC20-allowance}."
      },
      "approve(address,uint256)": {
        "details": "See {IERC20-approve}. Requirements: - `spender` cannot be the zero address."
      },
      "balanceOf(address)": {
        "details": "See {IERC20-balanceOf}."
      },
      "decimals()": {
        "details": "Returns the number of decimals used to get its user representation. For example, if `decimals` equals `2`, a balance of `505` tokens should be displayed to a user as `5,05` (`505 / 10 ** 2`). Tokens usually opt for a value of 18, imitating the relationship between Ether and Wei. This is the value {ERC20} uses, unless this function is overridden; NOTE: This information is only used for _display_ purposes: it in no way affects any of the arithmetic of the contract, including {IERC20-balanceOf} and {IERC20-transfer}."
      },
      "decreaseAllowance(address,uint256)": {
        "details": "Atomically decreases the allowance granted to `spender` by the caller. This is an alternative to {approve} that can be used as a mitigation for problems described in {IERC20-approve}. Emits an {Approval} event indicating the updated allowance. Requirements: - `spender` cannot be the zero address. - `spender` must have allowance for the caller of at least `subtractedValue`."
      },
      "increaseAllowance(address,uint256)": {
        "details": "Atomically increases the allowance granted to `spender` by the caller. This is an alternative to {approve} that can be used as a mitigation for problems described in {IERC20-approve}. Emits an {Approval} event indicating the updated allowance. Requirements: - `spender` cannot be the zero address."
      },
      "name()": {
        "details": "Returns the name of the token."
      },
      "symbol()": {
        "details": "Returns the symbol of the token, usually a shorter version of the name."
      },
      "totalSupply()": {
        "details": "See {IERC20-totalSupply}."
      },
      "transfer(address,uint256)": {
        "details": "See {IERC20-transfer}. Requirements: - `recipient` cannot be the zero address. - the caller must have a balance of at least `amount`."
      },
      "transferFrom(address,address,uint256)": {
        "details": "See {IERC20-transferFrom}. Emits an {Approval} event indicating the updated allowance. This is not required by the EIP. See the note at the beginning of {ERC20}. Requirements: - `sender` and `recipient` cannot be the zero address. - `sender` must have a balance of at least `amount`. - the caller must have allowance for ``sender``'s tokens of at least `amount`."
      }
    },
    "version": 1
  },
  "userdoc": {
    "kind": "user",
    "methods": {},
    "version": 1
  }
}